:020000040800F2
:10000000800A0020C5240008D5240008D724000851
:10001000D9240008DB240008DD24000800000000CB
:10002000000000000000000000000000DF240008C5
:10003000E124000800000000E3240008F50900089E
:10004000F1240008F5240008F9240008FD24000824
:100050000125000805250008092500080D250008D0
:100060001125000815250008192500081D25000880
:100070002125000825250008292500082D25000830
:100080003125000835250008392500083D250008E0
:100090004125000845250008492500084D25000890
:1000A0005125000855250008592500085D25000840
:1000B0006125000865250008FD090008692500087C
:1000C0006D250008712500087525000879250008B0
:1000D0007D25000855070008EB1F00088125000852
:1000E00085250008892500088D2500089125000830
:1000F00095250008992500089D250008A1250008E0
:10010000A5250008A9250008AD250008B12500088F
:10011000B5250008B9250008BD250008C12500083F
:10012000C5250008C9250008CD250008D1250008EF
:1001300038B5080015000024DBB208222900C0B23F
:1001400000F09BFA012801D0032426E0B5F5964F74
:1001500004D92320DFF85C14088016E0DFF8580487
:100160006900B0FBF1F0DFF854140880DFF85004A8
:100170006900B0FBF1F0DFF83C140880DFF84404BC
:10018000B0FBF5F0DFF840140880DFF83004008899
:1001900000F006FB012800D003242000C0B232BDCD
:1001A00080B50020DFF8241408700021012000F041
:1001B00041FA00F0FDFB01BD80B50021002000F0F8
:1001C00039FA00F00BFC01BDF8B504000D00160073
:1001D0000027DFF8FC030088FF2808DDC322DFF8D2
:1001E000F413DFF8F40300F029FCC046C046DFF842
:1001F000E0030088042817DBDFF8D4030188DFF868
:10020000DC0300F02DFC00280ED100F021FBDFF80C
:10021000CC0300782070DFF8B8030088C01E30805F
:10022000DFF8BC03286000E005273800C0B2F2BD4B
:1002300038B500240023DFF8AC532B60DFF88C3393
:100240001B78012B6ED1491EDFF89C331960012108
:10025000DFF898331980DFF8901309680870DFF829
:100260008C0300881018DFF884130880DFF87C0303
:100270000188DFF87403006800F0F2FBDFF8701308
:10028000096801291CD1DFF8641309884A1CDFF8CA
:100290005C331A80DFF85C2389B25054DFF84C13CA
:1002A00009884A1CDFF844331A8080B2000ADFF85C
:1002B000442389B250540020DFF83413086016E05C
:1002C000DFF8281309884A1CDFF820331A80DFF88A
:1002D0000C2389B25054DFF8141309884A1CDFF844
:1002E0000C331A8080B2000ABC4A89B250540120F3
:1002F000DFF804130870BC480068007800F00FFABB
:10030000B9480068401CB8490860B8480088401ED9
:10031000B64908800121002000F08CF90020B44982
:10032000086000E005242000C0B232BD10B582B0E4
:100330000024B1480078002807D040F21F12A549D8
:10034000AE4800F07BFBC046C046684600F0F0F9BE
:100350009E480078002805D0022826D008D303281C
:1003600003D04AE000F0F8FA47E000F0F5FA44E084
:1003700000209749088096480088411C944A1180C3
:100380009DF80010954A80B211549D480088411C88
:100390009B4A11809DF800109A4A80B211540220A5
:1003A0008A49087000F0D8FA27E089480088FF28B9
:1003B00014DC87480088411C854A11809DF8001094
:1003C000864A80B211548E480088411C8C4A1180A4
:1003D0009DF800108B4A80B2115402E003207B4943
:1003E000087089480088002802D100F0B5FA04E0BE
:1003F00001208549088000F0DBFA2000C0B216BD5C
:1004000010B5002471480078012807D040F2651229
:1004100070497E4800F012FBC046C046764800781E
:10042000002802D0012805D025E00021012000F09D
:1004300001F920E06D48008800280FD06A48006864
:10044000007800F06CF968480068401C6649086054
:1004500066480088401E654908800CE0052000F0D1
:1004600022FB04000021012000F0E4F80020624992
:10047000087000F007FA2000C0B210BD10B50024CB
:1004800000F0ACFA6248007801284CD066D303280B
:1004900016D063D200F076FA4D4801884F4800F03C
:1004A000DFFA002803D101205A49088002E0012028
:1004B0005549088058480068401C574908604DE07D
:1004C00056480068401C554908604048007802289A
:1004D00002D0032808D00BE0012000F0E4FA040069
:1004E00001203A4908701AE001203849087016E0E6
:1004F0003648007800280FD03448007802280BD006
:1005000032480078032807D040F2B91231494448F4
:1005100000F094FAC046C04601202C490870002023
:10052000394908801AE03848008800280CD13D4835
:100530000068401C3B490860002000F0B4FA040049
:1005400001202249087008E0042000F0ACFA0120E4
:100550001E49087000202C490880FFE72000C0B227
:1005600010BD80B52A480078042802D0052810D094
:100570001CE001212C4800F038FB01201C490860D8
:10058000052000F0AAFC29480068401C27490860A3
:100590000CE014480068012807D1032000F083FA1A
:1005A00023480068401C22490860FFE701BD184944
:1005B000087070476633002020120A006233002062
:1005C000A07F1700C0B60600643300207C330020F3
:1005D0005E330020B42200089823000890310020E8
:1005E00091310020103300203C3300205C33002088
:1005F00048330020083300207B3300202C240008DF
:1006000060330020800A002068330020482400085E
:100610007D3300206A3300204C330020503300200B
:10062000B821000854330020000800404033002067
:100630004433002010B50C00C0B2012806D10122BD
:1006400040F22551524800F0E1FC05E0002240F262
:1006500025514F4800F0DAFCE4B2012C06D101220A
:1006600040F227714A4800F0D1FC05E0002240F238
:100670002771474800F0CAFC10BD10B586B00C00C9
:10068000012144F2040000F090FD4FF40070ADF839
:10069000000003208DF8020018208DF80300694641
:1006A0003C4800F0B1FD4FF48060ADF8000003203D
:1006B0008DF8020004208DF803006946354800F0EB
:1006C000A3FD02940020ADF80C000020ADF80E0050
:1006D0000020ADF810000020ADF814000C20ADF89B
:1006E000120002A92A4800F023FC0121284800F04A
:1006F0007FFC4FF4C06000F0E7FD25208DF804007A
:1007000000208DF8050001208DF8060001208DF8ED
:10071000070001A800F0DDFD012006B010BD80B586
:10072000C0B2010089B21A4800F099FC012002BD54
:1007300010B50400164800F096FC2070012010BD92
:1007400080B515480068804701BD80B51348006832
:10075000804701BD80B540F225510D4800F087FC6F
:10076000012806D1FFF7F1FF40F22551084800F0BB
:10077000B0FC40F22771064800F079FC012806D150
:10078000FFF7DEFF40F22771014800F0A2FC01BD37
:1007900000380140000801402C330020283300209D
:1007A00080B24FF461614843401E9A4908600020BE
:1007B00099490860062099490860984800684008EF
:1007C000400096490860012070471FB504000020D2
:1007D0000121042000F0F9FC9148006842F21071F8
:1007E000B0FBF1F0401EADF80840ADF80400002069
:1007F000ADF80A000020ADF8060001A9894800F014
:100800006DF90121874800F0CCF94FF4C06000F089
:100810005BFD1E208DF8000003208DF801000120F3
:100820008DF8020001208DF80300684600F051FDAC
:1008300001217C4800F0D9F900220121794800F01B
:10084000A4F90021774800F092F9012004B010BD0E
:1008500080B50420FFF7ABFE42F2107072490880A9
:100860000121704800F0C1F900216E4800F0A7F99D
:1008700001216C4800F07BF901220121694800F058
:1008800084F901BD00B585B00520FFF790FE00207A
:100890000121042000F099FC6148006842F21071C7
:1008A000B0FBF1F0401E2321ADF80810ADF80400B4
:1008B0000020ADF80A000020ADF8060001A9594853
:1008C00000F00CF90121574800F06BF94FF4C060BB
:1008D00000F0FAFC1E208DF8000003208DF80100C6
:1008E00001208DF8020001208DF80300684600F019
:1008F000F0FC01214B4800F078F900220121494821
:1009000000F043F90021474800F031F90121454842
:1009100000F06BF90021434800F051F901214148F2
:1009200000F025F9012201213E4800F02EF905B022
:1009300000BD80B501213B4800F057F9002139483E
:1009400000F03DF90021374800F011F900220121A3
:10095000344800F01AF901BD80B50220FFF727FEE8
:10096000324800884FF461614843401E29490860BD
:100970000020294908602948006850F001002749F3
:10098000086001BD80B50320FFF711FE28480088EC
:100990004FF461614843401E1E49086000201E4913
:1009A00008601E48006850F001001C49086001BD45
:1009B00080B50120FFF7FBFD1E4800884FF4616100
:1009C0004843401E1349086000201349086013483B
:1009D000006850F001001149086001BD0F4800682F
:1009E000400840000D490860704780B51248006813
:1009F000804701BD80B5FFF7F8FF01BD80B501213B
:100A0000084800F0DEF8002803D0FFF792FFFFF758
:100A1000A8FD01BD14E000E018E000E010E000E0F7
:100A2000A4000020000800402C0800406233002091
:100A300064330020663300203033002000B583B0DB
:100A40000091019202906A4604491820ABBE00282A
:100A500001D100F077FC03B000BD00BF1010020010
:100A600010B4FF22FF2308E0DBB204785C40401C96
:100A7000084B1B5D5340084A125D0C00611EA4B276
:100A8000002CF1D1D2B2DBB253EA022080B210BC0A
:100A9000704700BF781D0008781E000800200D492F
:100AA00008700120704701210A4A11700A49087034
:100AB000012070470021074A1278002A06D0064913
:100AC0000978017000200349087001210800C0B2B4
:100AD000704700007F3300207E3300200022028810
:100AE000DFF81031984212D0DFF8203198420ED052
:100AF000B0F1804F0BD0DFF80031984207D0DFF81B
:100B0000FC30984203D0DFF8F830984204D14FF619
:100B10008F731A404B881A43DFF8E830984208D0A8
:100B2000DFF8E430984204D04FF6FF431A40CB88F8
:100B30001A4302808A8882850A880285DFF8B420F9
:100B400090420FD0DFF8C42090420BD0DFF8C020D5
:100B5000904207D0DFF8BC20904203D0DFF8B820E5
:100B6000904201D1097A0186012181827047C9B280
:100B7000002904D0018851F00101018004E00188BE
:100B80004FF6FE72114001807047D2B2002A03D0A6
:100B900082891143818103E0828932EA01018181E6
:100BA0007047C9B2002904D0018851F0800101804A
:100BB00004E001884FF67F72114001807047818404
:100BC0007047002200220023028A0A40808911EA2D
:100BD000000392B2002A04D09BB2002B01D0012264
:100BE00000E000221000C0B2704789B2C943018200
:100BF00070470000002C0140000400400008004045
:100C0000000C00400010004000140040003401407F
:100C1000004001400044014000480140F0B500237D
:100C2000B94C00256426B94F3F88491E8C46AE4614
:100C30001FFA8CFC1FFA8EFEF4451AD3ADB2B6B281
:100C4000751989B292B25618B54212DBC91B92B21D
:100C5000002A0FD089B234F81150ADB22D0A0570B8
:100C6000401C89B234F811500570401C491C521EBA
:100C7000EDE701231800C0B2F0BD2DE9F0410024DA
:100C8000A34D00266427DFF88CC2BCF800C0491EC3
:100C90008E46B0461FFA8EFE1FFA88F8C64536D338
:100CA000B6B2BFB2BE1989B292B25718BE422EDB9D
:100CB000B1EB0C01DBB2002B10D0012B23D027E0CD
:100CC00089B235F811309BB21B0A0370401C89B2FF
:100CD00035F811300370401C491C521E92B2002A94
:100CE000EED115E003781B0289B225F81130401CC3
:100CF00089B235F811300678334389B225F81130BE
:100D0000401C491C521E92B2002AEBD100E0012483
:100D10002000C0B2BDE8F0812DE9F04704001500C5
:100D20000026ADB2082095FBF0F0471CDFF8E88103
:100D300000225FF0400C79480088491E8E4691469B
:100D40001FFA8EFE1FFA89F9CE456BD392B21FFAB5
:100D50008CFC1CEB020289B2ADB215EB010C6245B2
:100D600060DB0A1A92B25FF0080C92FBFCF9081AD9
:100D700080B2082190FBF1F201FB120ADBB2002BDA
:100D800010D0012B32D04EE00822514689B21FFA12
:100D900089F908EB090000F00FFB19F10109207037
:100DA000641C7F1EBFB2002FEED1641EADB20820BE
:100DB00095FBF0F100FB11552078D5F10801884032
:100DC00020702078D5F10801084120702BE0200028
:100DD000441C03780822514689B21FFA89F908EBAE
:100DE000090000F0B3FA19F101097F1EBFB2022F0A
:100DF000EDDAADB2082095FBF0F100FB1155ADB274
:100E0000002D0ED02000441C03782A00D2B2514697
:100E100089B21FFA89F908EB090000F097FA19F175
:100E2000010900E001263000C0B2BDE8F0872DE9DD
:100E3000F047040015000026ADB2082095FBF0F045
:100E4000471CDFF8DC800022102336480088491E4A
:100E50008C4696461FFA8CFC1FFA8EFEF44537D35B
:100E600092B29BB29A1889B2ADB26B189A422FDB3C
:100E70000A1A92B2082392FBF3F9081A80B20821E9
:100E800090FBF1F201FB120A0DE00822514689B2F3
:100E90001FFA89F908EB090000F08EFA19F101092F
:100EA0002070641C7F1EBFB2002FEED1641EADB255
:100EB000082095FBF0F100FB11552078D5F10801D1
:100EC000884020702078D5F108010841207000E0AA
:100ED00001263000C0B2BDE8F08710B51249134AB0
:100EE00013780022114C647854F0800492B28C5430
:100EF000521C92B28854521C92B2DBB21800FFF717
:100F000097F910BD00000000A800002072330020F7
:100F10007001002074330020003300207033002063
:100F20006E3300206C330020093300209031002004
:100F300070B586B004000D000020002000210021C3
:100F40000026A88900282600208A4CF6FF71084058
:100F5000E98808432082A0894EF6F3110840A98849
:100F60002A8911436A8911430843A081A08A4FF658
:100F7000FF410840A9890843A082684600F0B8F8FC
:100F80001A48864201D1039800E00298A189090419
:100F900006D51921484329684900B0FBF1F105E065
:100FA0001921484329688900B0FBF1F16420B1FBA5
:100FB000F0F000010209642303FB1211A28912045C
:100FC00008D5C90032316422B1FBF2F111F00701FA
:100FD000084307E0090132316422B1FBF2F111F05C
:100FE0000F010843208106B070BD000000380140A9
:100FF000C9B2002904D0818951F40051818104E0F3
:1010000081894DF6FF7211408181704730B4002311
:1010100000240024002589B240F66A139942050095
:101020000800C0B24309DBB289B211F01F040120ED
:1010300010FA04F4012B01D10C3504E0022B01D18C
:10104000103500E01435D2B2002A03D028682043BE
:10105000286002E02868A043286030BC7047C905BA
:10106000C90D818070478088C005C00D704710B4DD
:10107000002200230022002289B240F66A12914227
:101080000A00D2B25209D2B289B211F01F03012470
:1010900014FA03F3012A02D18289134006E0022ADE
:1010A00002D1028A134001E0828A134089B20A0AFF
:1010B00092B2012111FA02F200880240002B03D003
:1010C000002A01D0012200E000221000C0B210BCB2
:1010D00070470022002289B240F66A12914289B21A
:1010E0000A0A012111FA02F292B2D143018070473B
:1010F00000210021002200213C49096811F00C0167
:10110000002904D0042905D0082906D021E0384957
:10111000016020E0364901601DE03449096811F49E
:101120007011324A126812F48032890C891C002A2C
:1011300003D1304A514301600AE02C4A12689203FD
:1011400003D52C4A5143016002E0294A5143016012
:1011500001E0274901602549096811F0F0010909FA
:10116000254A515C0268CA4042602049096811F46E
:10117000E061090A204A515C4268CA4082601B490A
:10118000096811F46051C90A1B4A515C4268CA409F
:10119000C2601649096811F44041890B174A515C35
:1011A000C268B2FBF1F101617047C9B2002905D0F4
:1011B0001349096808431249086005E010490968A5
:1011C00031EA00000E4908607047C9B2002905D015
:1011D0000C49096808430B49086005E0094909689A
:1011E00031EA00000749086070470000041002401F
:1011F00000127A0000093D0090000020A0000020AD
:10120000181002401C10024070B400220025002378
:10121000002600240025CA7812F00F02CB78DB06E6
:1012200001D58B781A430B781B0621D00468002364
:1012300006E0CD78482D02D101259D4005615B1C5B
:10124000082B14D2012515FA03F60D883540B54256
:10125000F5D19E000F25B540AC4312FA06F52C439C
:10126000CD78282DE5D101259D404561E7E7046053
:101270000B88FF2B26DD4468002320E0012513F1B5
:10128000080615FA06F60D883540B54216D19E00BF
:101290000F25B540AC4312FA06F52C43CD78282D26
:1012A00004D1012513F10806B5404561CD78482DDC
:1012B00004D1012513F10806B54005615B1C082B1C
:1012C000DCD3446070BC7047194908431949086071
:1012D0007047002100220F23C17800291DD0154935
:1012E000096811F4E061D1F5E061090AD1F1040265
:1012F000CB404178914082781A40114309010E4A4F
:101300000378D1540121027812F01F0291400B4A58
:101310000078401142F8201009E00121027812F013
:101320001F029140064A0078401142F82010704791
:101330000000FA050CED00E000E400E000E100E050
:1013400080E100E0012000F061B80000F8B5040081
:101350000E0017001D00EDB2FFB2092F06DB382288
:1013600013491448FFF76AFBC046C046B6B2F008FE
:10137000B6B280B2B6EBC0018D400121B9404A1E21
:10138000B6B280B2B6EBC0018A4080B2215C80B2B6
:1013900004EB00035B7851EA03219143294380B2B7
:1013A000215489B2090A80B220444170F1BD000085
:1013B0006C220008B424000810B489B2CB0889B2AA
:1013C0009BB2B1EBC304012191404A1E9BB2C15CA8
:1013D0009BB21844407851EA002189B2E1401140A3
:1013E0000800C0B210BC7047C0B2002804D0012869
:1013F00004D0072804D005E0002004E0022002E029
:10140000062000E00420C0B27047000080B5C0464E
:10141000C046024A11001820ABBEFBE726000200BE
:10142000002003E0491CC829FCDB401C4CF2513170
:10143000884201DA0021F6E7704738B50400100051
:101440001A000025C9B2002905D0C9B2002902D06E
:10145000C9B2F82901DB022544E0DFF848321970EF
:10146000E4B2002C2FD1DFF84012DFF840321960CF
:10147000DFF83C12DFF83C321960DFF83C12DFF88D
:101480003C321960DFF83812DFF838321960002179
:10149000DFF834321960DFF83412DFF834321960C3
:1014A000DFF83012DFF830321960DFF83012DFF881
:1014B00030321960049B0100C9B27A480078FEF707
:1014C00037FE050000E00225EDB2002D0AD1FFF73E
:1014D000E5FA002801D1032504E0824804700120C8
:1014E000814908702800C0B232BD10B500247E4882
:1014F0000078012806D16D480068804700207A49AD
:10150000087000E006242000C0B210BD80B50020A5
:1015100075480078002801D00620C1E06846FFF732
:10152000C9FA012840F0BB809DF8000000280CD0CB
:10153000022822D00AD3042800F0AB8076D30628F4
:1015400000F08180C0F0AB80A9E0A8E0684A69495A
:1015500069485C4B1B689847C0B200280CD16648AC
:10156000007850490978884203D063480078002801
:1015700002D10220FFF797FA91E05E4800680078F8
:101580005E49087001205E490870002200E0521C8C
:10159000122A15DA554810F83200002810D05348A6
:1015A00010F83200554909788842F0D15049514825
:1015B00000684E4B03EBC2025268904750490870D6
:1015C0004D480078002830D04D48007800281CD0C5
:1015D0000020474908804948007850F0800045497C
:1015E0000968434A1288885441480088401C404991
:1015F0000880434800783F4909683D4A128888546A
:101600003B480088401C3A490880FFF792F90120C6
:101610003C4908603648028836480168214800780D
:10162000264B1B689847FFF7FBFE38E030480288DE
:10163000304801681B480078204B1B6898470520FC
:10164000FFF731FA2BE00020294908802B48007869
:1016500050F0800027490968254A12888854244898
:101660000088401C22490880062022490968204A37
:10167000128888541E480088401C1D4908801C4858
:1016800002881C480168074800780C4B1B68984783
:1016900005E01D4801781D4800F03AF8FFE70020FA
:1016A00002BD000076330020A1010008183300209D
:1016B000B90100081C330020310200081433002057
:1016C000C901000820330020243300202D03000826
:1016D00028330020010400082C3300207D0400087A
:1016E00030330020773300207802002000000020F3
:1016F0005833002034330020783300207933002021
:101700007A3300201033002090310020E8230008B5
:101710000EB400B582B003A9009102466B460121C8
:10172000034878440A3000F011F806BC5DF810FB5D
:10173000630D000070B504461E000846154604D02F
:1017400015F8011BA047761EFAD170BD2DE9F046B1
:1017500083B08246894614461F4607E0012322468D
:1017600049465046FFF7E6FF8146641C2078010099
:1017700003D1002003B0BDE8F0862528EED16078C3
:10178000A41C2528014618D058285CD063280ED008
:10179000642818BF692814D06F2854D0702858D0F6
:1017A00073285DD0752818BF78284CD0DEE73868DC
:1017B000386050F8041B3860C9B24846D0478146AB
:1017C000D4E73868386050F8045B3860002D03D5E2
:1017D0002D214846D047814664206F2808BF082243
:1017E00005D040F02001782914BF0A2210220B21D5
:1017F0006428AC4603D1002D48BFCCF1000CBCFBE3
:10180000F2F502FB15CC0CF130065FFA86FC4B1E9C
:10181000BCF13A0FA4BFA0F15106B4440DF803C0C7
:1018200019465FEA050C01D00129E8DA4846D1F1F2
:101830000B090DEB0105C2D015F8011BD047B9F11A
:101840000109F9D1BBE73968396051F8045B3960A7
:10185000C3E73868386050F8045B38607820BCE72C
:101860003868386050F8045B3860284600F00AF8A1
:1018700006004846A3D015F8011BD047761EFAD1C2
:101880009DE7000000F10103810704D010F8011B5F
:1018900089B18107FAD10268B2F10131914311F0A7
:1018A000803F04BF50F8042FF6E710F8011B11B178
:1018B00010F8011BFBE7C01A704710B50024098817
:1018C000052912D14178090282781143491C01236C
:1018D000012289B2C01CFFF7D0F9C0B2002805D0A0
:1018E000C0B2FFF781FD040000E003242000C0B275
:1018F00010BD70B50C0000252188062928DB417831
:10190000090282781143491CC278120203791A43F2
:10191000437992B2002A19D092B2792A16DA92B299
:101920005600DBB2F6B2B34210D1012392B289B2B3
:10193000801DFFF7A2F9C0B2002804D0C0B2FFF7A3
:1019400053FD050005E00520208002E0032500E0AE
:1019500003252800C0B270BD70B50C000025218899
:10196000052933D14178090282781143491CC27894
:1019700016020679B6B2002E26D0B6B27E2E23DA33
:101980000022228003220270401C2288521C2280E6
:101990003200D2B252000270401C2288521C2280B7
:1019A0000023320092B289B2FFF767F9C0B2002873
:1019B00004D0C0B2FFF718FD050008E02088B6B2D9
:1019C00010EB4600208002E0032500E003252800FC
:1019D000C0B270BD2DE9F04104000D00002628883A
:1019E0000A285DDB60780702A07807437F1CE07857
:1019F0005FEA0028207950EA080860790102A0799E
:101A00000143491CE0790202207A0243607A1FFAFE
:101A100088F8B8F1000F42D01FFA88F8B8F17E0FAD
:101A20003DDA92B2002A3AD092B27A2A37DA92B2EA
:101A30005300C0B2834232D1012392B289B214F171
:101A40000A00FFF71AF9C0B2002820D10020288030
:101A500017202070641C2888401C28804046C0B293
:101A600040002070641C2888401C288000234246C7
:101A700092B2390089B22000FFF7FFF8C0B2002807
:101A800005D129881FFA88F811EB48012980C0B2D6
:101A9000002805D0C0B2FFF7A7FC060000E003262F
:101AA0003000C0B2BDE8F08170B50C00002521887F
:101AB00005293DD14178090282781143491CC27839
:101AC000120203791A4392B2002A2FD092B2B2F5D1
:101AD000FA6F2BDA0023238001230370401C238834
:101AE0005B1C238007231A4205D092B2082392FB85
:101AF000F3F35E1C03E092B2082392FBF3F6067048
:101B0000401C23885B1C2380002392B289B2FFF71C
:101B100003F9C0B2002804D0C0B2FFF765FC05008D
:101B200007E02088F6B23018208002E0032500E0AC
:101B300003252800C0B270BD10B582B0002409880A
:101B400005292AD14178090282781143491C02797A
:101B5000002A20D1C278FF2A02D0C278002A1AD1E6
:101B600000228DF80120C078FF2803D101208DF8D4
:101B7000000002E000208DF800000123012289B25C
:101B80006846FFF7C9F8C0B2002807D0C0B2FFF717
:101B90002BFC040002E0032400E003242000C0B278
:101BA00016BDF8B50C0000252188062934DB4178E4
:101BB000090282781143491CC278120203791A4340
:101BC00043790726324205D092B2082692FBF6F6F8
:101BD000761C03E092B2082692FBF6F692B2002A37
:101BE00018D092B2B2F5F66F14DCF6B2DBB29E42B8
:101BF00010D1012392B289B2801DFFF78DF8C0B2D7
:101C0000002804D0C0B2FFF7EFFB050005E0052077
:101C1000208002E0032500E003252800C0B2F2BDC9
:101C200080B54E48006850F001004C4908604C48AF
:101C300000684C4908404A490860484800684A49D9
:101C40000840464908604548006830F48020434910
:101C500008604348006830F4FE00414908605FF4C2
:101C60001F004249086000F005F85FF0006040493D
:101C7000086001BD80B500F001F801BD82B0002010
:101C80000190002000903548006850F480303349BE
:101C900008603248006810F4003000900198401C41
:101CA00001900098002803D10198B0F5A06FF0D101
:101CB0002A480068800302D50120009001E000203E
:101CC00000900098012847D12A48006850F0100081
:101CD0002849086027480068800880002549086076
:101CE0002448006850F00200224908601C4800683F
:101CF0001B4908601A4800681949086018480068BC
:101D000050F48060164908601548006830F47C1073
:101D1000134908601248006850F4E8101049086040
:101D20000E48006850F080700C4908600B4800684D
:101D30008001FBD50A4800688008800008490860D7
:101D40000748006850F00200054908600448006830
:101D500010F00C000828F9D102B0704700100240C2
:101D6000041002400000FFF8FFFFF6FE08100240DA
:101D700008ED00E00020024000C1814001C0804128
:101D800001C0804100C1814001C0804100C181404B
:101D900000C1814001C0804101C0804100C181403B
:101DA00000C1814001C0804100C1814001C080412B
:101DB00001C0804100C1814001C0804100C181401B
:101DC00000C1814001C0804100C1814001C080410B
:101DD00001C0804100C1814000C1814001C08041FB
:101DE00001C0804100C1814001C0804100C18140EB
:101DF00000C1814001C0804101C0804100C18140DB
:101E000000C1814001C0804100C1814001C08041CA
:101E100001C0804100C1814000C1814001C08041BA
:101E200001C0804100C1814001C0804100C18140AA
:101E300000C1814001C0804100C1814001C080419A
:101E400001C0804100C1814001C0804100C181408A
:101E500000C1814001C0804101C0804100C181407A
:101E600000C1814001C0804100C1814001C080416A
:101E700001C0804100C1814000C0C101C30302C252
:101E8000C60607C705C5C404CC0C0DCD0FCFCE0EBA
:101E90000ACACB0BC90908C8D81819D91BDBDA1A2A
:101EA0001EDEDF1FDD1D1CDC14D4D515D71716D69A
:101EB000D21213D311D1D010F03031F133F3F2320A
:101EC00036F6F737F53534F43CFCFD3DFF3F3EFE7A
:101ED000FA3A3BFB39F9F83828E8E929EB2B2AEAEA
:101EE000EE2E2FEF2DEDEC2CE42425E527E7E6265A
:101EF00022E2E323E12120E0A06061A163A3A262CA
:101F000066A6A767A56564A46CACAD6DAF6F6EAE39
:101F1000AA6A6BAB69A9A86878B8B979BB7B7ABAA9
:101F2000BE7E7FBF7DBDBC7CB47475B577B7B67619
:101F300072B2B373B17170B0509091519353529289
:101F400096565797559594549C5C5D9D5F9F9E5EF9
:101F50005A9A9B5B99595898884849894B8B8A4A69
:101F60004E8E8F4F8D4D4C8C4484854587474686D9
:101F7000824243834181804000B585B001212948D8
:101F8000FFF713F90420ADF8000018208DF80300C6
:101F900003208DF8020069462348FFF735F9082031
:101FA000ADF8000004208DF8030069461E48FFF7D5
:101FB0002BF94FF4165001900020ADF808000020D6
:101FC000ADF80A000020ADF80C000020ADF81000BC
:101FD0000C20ADF80E0001A91448FEF7A9FF01215D
:101FE0001248FFF705F805B000BD80B540F2277133
:101FF0000E48FFF73CF8012804D140F227710B4846
:10200000FFF767F801BD10B504002100C9B289B21D
:102010000748FFF724F8064800880006FBD5200093
:1020200010BD000004000200000801400044004010
:102030000038014070B50C000025218805293CD1ED
:102040004178090282781143491CC278120203794F
:102050001A4392B2002A2ED092B2B2F5FA6F2ADA5F
:102060000023238002230370401C23885B1C2380F1
:1020700007231A4205D092B2082392FBF3F35E1CA9
:1020800003E092B2082392FBF3F60670401C23880B
:102090005B1C238092B289B2FEF7C9FEC0B2002851
:1020A00004D0C0B2FFF7A0F9050007E02088F6B21F
:1020B0003018208002E0032500E003252800C0B28C
:1020C00070BD70B50C0000252188052933D14178F9
:1020D000090282781143491CC2781602027916431C
:1020E000B6B2002E25D0B6B27D2E22DA0022228092
:1020F00004220270401C2288521C22803200D2B27C
:1021000052000270401C2288521C2280320092B27F
:1021100089B2FEF783FDC0B2002804D0C0B2FFF739
:1021200063F9050008E02088B6B210EB4600208075
:1021300002E0032500E003252800C0B270BD0000C6
:1021400062B38B0708D0521E11F8013B00F8013B27
:1021500000F024808B07F6D1830740F0208000BF79
:10216000103A07D330B4B1E83810103AA0E838106C
:10217000F9D230BC530724BFB1E80810A0E808101A
:1021800044BF51F8043B40F8043BD20724BF31F868
:10219000022B20F8022B44BF0B7803707047083ADB
:1021A00007D3B1E80810083A40F8043B40F804CBE4
:1021B000F7D25307E4E70000282065526376537492
:1021C000617465203D3D2053544154455F52585F32
:1021D000494E49542029207C7C2028206552637672
:1021E0005374617465203D3D2053544154455F5202
:1021F000585F5243562029207C7C2028206552635A
:10220000765374617465203D3D2053544154455FBD
:1022100052585F4552524F522029000038B50C00E9
:102220000F490A880F49451C2800FFF789FF0C4811
:102230000088401C2080002032BD10B50024417869
:1022400009028078014389B20748016006480068A6
:102250000A21484380B2FEF7B8FA2000C0B210BD90
:102260005A330020E032002038330020453A5C46E3
:102270007265656D6F64627573B4D3BBFAA3A854BD
:102280003135B5DAB6FEB0E6A3A9B2E2CAD4202D44
:1022900020B8B1B1BE5C4D4F444255535C66756E7B
:1022A0006374696F6E735C6D627574696C732E63B1
:1022B00000000000453A5C467265656D6F646275AA
:1022C00073B4D3BBFAA3A8543135B5DAB6FEB0E681
:1022D000A3A9B2E2CAD4202D20B8B1B1BE5C4D4F43
:1022E000444255535C7274755C6D627274752E63F2
:1022F0000000000019E050F8041BCB0744BFA9F10F
:1023000001035918121F0023042A41F8043BF9D293
:102310005FEA827C0B4604D54FF0000CA1F800C0A8
:102320009B1CD10744BF0021197050F8042B002AD0
:10233000E1D1704730B5016842688468014401EB1F
:102340005203D20748BF4C44994201D10C3030BDF2
:1023500011F9012B11F8015B002A04F8015B02D589
:10236000521CF9D1F0E7521EF4D5EDE780B5FFF726
:1023700003FE002000904FF416530122012100209B
:10238000FFF75BF84FF47A70FEF71FFAFFF7ADF82E
:10239000FFF7BCF8FCE70000757352637642756680
:1023A000666572506F73203C204D425F5345525F0B
:1023B0005044555F53495A455F4D41580000000055
:1023C00010B5074979441831064C7C44163404E0B2
:1023D0000A68081D114488470146A142F8D110BD82
:1023E0002C000000480000000D0A2D2D2D2D2D2D54
:1023F000B4D3BBFAB7A2CBCDB5C4CAFDBEDD2D2D7B
:102400002D2D2D2564200D0A00000000E9FEFFFFA0
:1024100000290000800A00200000000019FFFFFFD3
:10242000B40100006C0100000000002065536E64E0
:102430005374617465203D3D2053544154455F54AD
:10244000585F49444C45000065526376537461748B
:1024500065203D3D2053544154455F52585F4944E7
:102460004C45000000F00BF8002801D0FFF7A8FF52
:102470000020C046C046FFF779FF00F002F80120B7
:10248000704700F001B8000007463846FEF7BEFF6F
:10249000FBE738B504460D46284600F005F8A8428B
:1024A00018BF0024204632BD0149FFF7ACBD00BF74
:1024B0003802002075634E42697473203C3D203819
:1024C000000000000148804701480047211C000827
:1024D000E52400087047FEE7FEE7FEE7FEE77047E9
:1024E00070477047C046C046C046C046FFF7BAFFB7
:1024F000FFF7FEBFFFF7FEBFFFF7FEBFFFF7FEBF10
:10250000FFF7FEBFFFF7FEBFFFF7FEBFFFF7FEBFFF
:10251000FFF7FEBFFFF7FEBFFFF7FEBFFFF7FEBFEF
:10252000FFF7FEBFFFF7FEBFFFF7FEBFFFF7FEBFDF
:10253000FFF7FEBFFFF7FEBFFFF7FEBFFFF7FEBFCF
:10254000FFF7FEBFFFF7FEBFFFF7FEBFFFF7FEBFBF
:10255000FFF7FEBFFFF7FEBFFFF7FEBFFFF7FEBFAF
:10256000FFF7FEBFFFF7FEBFFFF7FEBFFFF7FEBF9F
:10257000FFF7FEBFFFF7FEBFFFF7FEBFFFF7FEBF8F
:10258000FFF7FEBFFFF7FEBFFFF7FEBFFFF7FEBF7F
:10259000FFF7FEBFFFF7FEBFFFF7FEBFFFF7FEBF6F
:1025A000FFF7FEBFFFF7FEBFFFF7FEBFFFF7FEBF5F
:1025B000FFF7FEBFFFF7FEBFFFF7FEBFFFF7FEBF4F
:1025C000FFF7FEBFFFF7FEBFFFF7FEBFFFF7FEBF3F
:1025D000FFF7FEBF0011FD00041D22000804FD00EE
:1025E00004C320000803FD00045919000810FD0071
:1025F00004F318000806FD0004BB18000817FD00CE
:1026000004D519000801FD0004A91A000805FD0001
:1026100004391B00080FFD0004A31B000802FD0085
:10262000043520000842FD00033B220008C4001BC3
:102630000102030401020304060708090204060854
:1026400000A24A0411112222333344448100BF0006
:102650000F7B148E3F7B140E40B81E55407B148EAA
:10266000408100C7001F0204010190320020E032C7
:10267000002090320020903200209032002075021D
:0A26800000205C020020E0000002D0
:04000005080024E5E6
:00000001FF
